S011000052656C6F6A5F4C45442E73726563E3
S11300000C9474000C9486000C9486000C94860066
S11300100C94D9060C9486000C9486000C948600EB
S11300200C9486000C9486000C945B060C94860059
S11300300C9486000C9486000C9486000C94860024
S11300400C9486000C9486000C9486000C94860014
S11300500C9486009B03D10307043F047604AC048C
S11300605806E20417054C0583055806B105EB054F
S1130070DA0AE30AFE0A190B340B4F0B6A0B850BE1
S1130080A00BBA0BD40BEE0B070C690F960FA60F3F
S1130090B60FC60FD60FE60F5110F60F0610161046
S11300A025105110341043100F121D122B12391247
S11300B047125512631271127F128D129B12A912EC
S11300C0B712C512D312E1121613241332134013BC
S11300D04E135C136A13781386139413A213B0138C
S11300E0BE13CC13DA13E81311241FBECFE5D8E0F6
S11300F0DEBFCDBF20E0A0E6B0E001C01D92A13E6E
S1130100B207E1F70E94D2100C94F7140C9400008B
S11301100F931F93CF93DF93082FC92F162FD42F3C
S11301200E94CB0E80EA90E00E94D40E8C2F90E0C7
S11301300E94D40E802F9C2F0E94D40E812F90E019
S11301400E94D40E8D2F90E00E94D40E0E94A40E23
S1130150DF91CF911F910F9108951F93CF93DF9358
S1130160182FC92FD62F0E94CB0E80EA90E00E9450
S1130170D40E8C2F90E00E94D40E812F9C2F0E94CD
S1130180D40E8D2F90E00E94D40E0E94A40EDF9115
S1130190CF911F910895CF93DF93D82FC92F0E9439
S11301A0CB0E80EA90E00E94D40E8C2F90E00E9447
S11301B0D40E8D2F9C2F0E94D40E0E94CB0E81EA68
S11301C00E94AE0E80E00E94B50EC82F0E94A40EBD
S11301D08C2FDF91CF9108950F931F93CF93DF93CB
S11301E090B38091C700813009F05FC28091B30061
S11301F081709170891709F457C08091B0008823E9
S113020051F091E09093BB008B3009F44AC084E034
S11302100E94661446C08091BF009091C00085354D
S113022021E09207C1F018F4CC9749F037C08A3A1C
S1130230F2E09F07E1F08F3F934029F12FC085E55D
S113024091E09093C0008093BF0062E080E090E072
S11302500E94AD0023C08AEA92E09093C00080938C
S1130260BF0063E080E090E00E94AD0017C08FEF14
S113027093E09093C0008093BF0064E080E090E03E
S11302800E94AD000BC08CE390E09093C00080937B
S1130290BF0061E080E090E00E94AD0088E00E9431
S11302A0661480B38093B30080B39091B4009270CD
S11302B08270981779F08091B000882341F091E022
S11302C09093BC008B3019F084E00E94661480B3D4
S11302D08093B40080B39091B500947084709817A3
S11302E009F4B0C08091B000883018F48F5F809317
S11302F0B0008091B000843089F4C1ECD0E08881F2
S11303000E943A07082F89810E943A07182F8A8190
S11303100E943A07402F612F0E9419148091B00067
S11303208730B9F4C1ECD0E08D810E943A07082FE0
S11303308B810E943A07182F8C810E943A07402F24
S1130340612F0E943B148091B000873011F4109209
S1130350B00080B38093B5008091B000813081F407
S1130360E1E6F0E09081A1ECB0E09C93218111964C
S11303702C931197228112962C939F5F918720C012
S1130380823071F4A1ECB0E011969C911197E1E6F2
S1130390F0E021E0290F228791839C91908324C06F
S11303A0833071F4A1ECB0E012969C911297E1E6CF
S11303B0F0E0928311962C9121839F5F938725C04F
S11303C0843091F4E1E6F0E09481A1ECB0E013967E
S11303D09C931397238114962C9314972581159637
S11303E02C939F5F948720C0853079F4A1ECB0E012
S11303F014968C911497E1E6F0E091E0980F9587BC
S1130400838315968C91858313C0863069F4A1EC9F
S1130410B0E015968C911597E1E6F0E08687858328
S113042014968C91838304C0882349F0873050F458
S113043083E00E9466148091B000811103C085E0BE
S11304400E94661480B39091B600987088709817D3
S113045009F490C080B38093B6008091B0008930D5
S113046009F456C030F4882359F0883009F443C0A5
S113047081C08A3009F45BC08B3009F46CC07AC047
S1130480CA9B04C08EEF0E945D1474C089E08093FF
S1130490B00080916000807C8D618093600081E079
S11304A090E00E94CB00C1E6D0E0888380E293E034
S11304B00E94970E809160008695837090E00E9460
S11304C0CB00898380E293E00E94970E80916000C4
S11304D0869586958695877090E00E94CB008A83E6
S11304E080E293E00E94970E88818E8389818F83B6
S11304F08A8188873FC089E08093B000E1E6F0E01C
S113050080818F5F8787868180838085828332C0E4
S11305108AE08093B000E1E6F0E0878191E0980FF3
S1130520908B8183868180838085828323C010920F
S1130530B000E1E6F0E086818083408542836781F4
S1130540618381E0840F818B82E090E00E948800C7
S11305500E9458070FC01092B000E1E6F0E06681F7
S113056081E0860F878781E090E00E94AD008EEFE6
S11305700E945D1480B39091BA00907880789817A7
S113058009F44EC080B38093BA008091B000811109
S113059026C0CA9B04C08EEF0E945D1441C08091A6
S11305A0AB008823C1F08230D9F58BE08093B00092
S11305B00BEA10E0F8011082C1E6D0E08D890E94B8
S11305C06D1481E090E00E94CB0088838E83F80153
S11305D01282118225C082E08093AB0021C08091F9
S11305E0AB008823D1F08230D9F41092B00001E638
S11305F010E0F801668181E090E00E94AD00CBEA52
S1130600D0E018828EEF0E945D1481E0F801818FA2
S11306100E9458071A82198203C082E08093AB00BB
S113062089B39091B80098708870981799F089B33D
S11306308093B8008091AB00882319F0813029F0B1
S113064009C081E08093AB0005C0EBEAF0E01082C2
S11306501282118280B39091B900907480749817BB
S113066021F180B38093B9008091B0008D3059F0AE
S11306708E3089F0811119C08DE08093B00086E03E
S11306800E94661412C08EE08093B00080917600C0
S11306900E945D140AC01092B0008EEF0E945D1497
S11306A081E080937A000E94580780B39091B7004C
S11306B090718071981751F18091C700882319F0C7
S11306C08130E1F020C081E08093C7008D9A83ECF3
S11306D08FBD89E08EBD80B3E3EBF0E0808380B30F
S11306E0818380B3828380B3838380B3848389B31B
S11306F0858380B3868380B3878305C01092C70047
S11307001FBC1EBC959A80B38093B700DF91CF9134
S11307101F910F910895CF93DF93E091B0008E2F36
S113072090E0FC013197EE30F10508F0C1C2E65DBE
S1130730FF4F0C94F1148091BB00882381F08091C9
S1130740C1008F5F8C3318F48093C10002C01092F3
S1130750C1001092BB008091C10080936100809120
S1130760BC00882361F08091C100815018F080930F
S1130770C10003C08BE38093C1001092BC00809140
S11307807E00811106C0E1E6F0E0108282E08187FC
S11307908FC28091C100E1E6F0E080838F5F8187A2
S11307A087C28091BB00882381F08091C2008F5F53
S11307B08C3318F48093C20002C01092C20080915E
S11307C0C200809362001092BB008091BC00882319
S11307D061F08091C200815018F08093C20003C080
S11307E08BE38093C2001092BC0080917E00811143
S11307F006C0E1E6F0E0118282E0828759C280916E
S1130800C200E1E6F0E081838F5F828751C280916C
S1130810BB00813081F48091C3008F5F883118F46C
S11308208093C30002C01092C3001092BB00809159
S1130830C300809363008091BC00813061F4809197
S1130840C300815018F08093C30003C087E18093F4
S1130850C3001092BC0080917E00811108C01092E8
S11308606300E1E6F0E082818E5F838721C280919C
S1130870C300E1E6F0E082838F5F838719C2809131
S1130880BB00813089F48091C4008F5F8D3018F4EF
S11308908093C40003C081E08093C4001092BB0025
S11308A08091C400809365008091BC00813061F424
S11308B08091C400815019F08093C40003C08CE07F
S11308C08093C4001092BC0080917E00811106C008
S11308D0E1E6F0E0148282E08487EAC18091C400FA
S11308E0E1E6F0E084838F5F8487E2C18091BB00FE
S11308F0813081F48091C5008F5F803218F4809339
S1130900C50002C01092C5001092BB008091C500C2
S1130910809364008091BC00813061F48091C500B3
S1130920815018F08093C50003C08FE18093C50007
S11309301092BC0080917E00811106C0E1E6F0E0D7
S1130940138282E08587B4C18091C500E1E6F0E0BE
S113095083838F5F8587ACC18091BB00813081F434
S11309608091C6008F5F8C3318F48093C60002C058
S11309701092C6001092BB008091C600809366005E
S11309808091BC00813061F48091C600815018F0E0
S11309908093C60003C08BE38093C6001092BC0012
S11309A080917E00811106C0E1E6F0E0158282E0CC
S11309B086877EC18091C600E1E6F0E085838F5F83
S11309C0868776C18091BB00882381F0809167007F
S11309D08F5F8C3318F48093670002C01092670015
S11309E01092BB00E1E6F0E0868180838091BC0038
S11309F0813061F480916700815018F08093670022
S1130A0003C08BE3809367001092BC0080917E004A
S1130A10811106C0E1E6F0E0108282E0878748C1D8
S1130A20E1E6F0E0868180838F5F878741C1809112
S1130A30BB00882381F0809168008F5F8C3318F4A9
S1130A408093680002C0109268001092BB00E1E637
S1130A50F0E0878181838091BC00813061F48091D2
S1130A606800815018F08093680003C08BE3809382
S1130A7068001092BC0080917E00811106C0E1E6FE
S1130A80F0E0118282E0808B13C1E1E6F0E087811F
S1130A9081838F5F808B0CC18091BB00813081F496
S1130AA0809169008F5F883118F48093690002C0D7
S1130AB0109269001092BB00E1E6F0E08085828329
S1130AC08091BC00813061F480916900815018F0FC
S1130AD08093690003C087E1809369001092BC0091
S1130AE080917E00811108C080916900109263009A
S1130AF08E5F80937200DCC0E1E6F0E08085828343
S1130B008F5F818BD5C08091BB00813059F4809375
S1130B10B100C1E6D0E08D890E946D141E82188256
S1130B201092BB008091BC00813051F48EEF0E9482
S1130B305D148EE1809367001092B1001092BC00A6
S1130B4080917E00811106C0E1E6F0E0108282E02F
S1130B508787AEC0E1E6F0E0868180838F5F878778
S1130B60A7C08091BB00813081F41092BB00C1E624
S1130B70D0E01A8A18828093B20086E00E9466143C
S1130B806A8985E090E00E94AD008091BC008130CC
S1130B9089F41092BC00C1E6D0E08EE18A8B888390
S1130BA08EEF0E945D146A8985E090E00E94AD009A
S1130BB01092B20080917E00811106C0E1E6F0E05F
S1130BC0108282E0868B74C0E1E6F0E08289808343
S1130BD08F5F868B6DC08091BB00813051F5109280
S1130BE0BB00E1E6F0E09389890F838B833020F02A
S1130BF0138A81E0818309C09E5F909362008130F3
S1130C0039F018F0823041F00AC01092760007C023
S1130C1081E08093760003C082E080937600C1E691
S1130C20D0E08D890E945D146B8984E090E00E947D
S1130C30AD008091BC00813059F51092BC00E1E612
S1130C40F0E093898FEF890F838B8F3F29F482E043
S1130C50838B83E081830FC090936200813039F0ED
S1130C6018F0823059F407C01092760007C081E072
S1130C708093760003C082E080937600C1E6D0E0E2
S1130C808D890E945D146B8984E090E00E94AD0020
S1130C9080917E00811106C0E1E6F0E0118282E0DD
S1130CA0878B06C0E1E6F0E083898F5F8183878BC1
S1130CB0DF91CF9108951F920F920FB60F921124D6
S1130CC02F933F938F939F93AF93BF93EF93FF9390
S1130CD0F89480917B008F5F853618F480937B00B5
S1130CE01AC0E1E6F0E0128E858D882361F0813030
S1130CF091F410927E008091B000882361F081E02D
S1130D008093AA0008C081E080937E008091B000A7
S1130D1081111092AA001092A30080917C009091FE
S1130D207D000196843021E0920728F490937D00A1
S1130D3080937C0009C010927D0010927C00E6ED47
S1130D40F0E085818F5F85838091AB00882311F16A
S1130D50EBEAF0E0218132812F5F3F4F3283218320
S1130D60813039F4293E3048A8F010821282118271
S1130D7011C0823079F42539314160F0ABEAB0E03A
S1130D801C92E1E6F0E081E0818F12961C921E92A3
S1130D901197868F12BE7894FF91EF91BF91AF9116
S1130DA09F918F913F912F910F900FBE0F901F90A5
S1130DB018951F920F920FB60F9211248F93EF93F1
S1130DC0FF93F8948091CF00813051F48091D0004A
S1130DD08B3030F0E8ECF0E086818F5F86831086FC
S1130DE0E8ECF0E080858F5F808714BCFF91EF9181
S1130DF08F910F900FBE0F901F9018958091C70090
S1130E00813069F5E3EBF0E02285338584859585AF
S1130E102817390729F1248535858285938582171A
S1130E20930750F482859385019693878287828500
S1130E3093859BBD8ABD0895E3EBF0E02485358559
S1130E40828593852817390758F4828593850197FD
S1130E5093878287828593859BBD8ABD0895959AE1
S1130E600895D99A81E0982F9A95F1F7D9988A959F
S1130E70F1F708959DEC899F912D112496959695EF
S1130E80969520E1929FA0011124990F292F220FFA
S1130E90220F920F891B842B0895982F92959F708F
S1130EA0990F292F220F220F920F8F70890F089507
S1130EB0CF93DF938091B000811135C080917A0087
S1130EC0813089F580E00E94FE130E944D07C1E63F
S1130ED0D0E0888381E00E94FE130E944D0789833D
S1130EE082E00E94FE130E944D078A838091AB002A
S1130EF0813029F08091B00084508330A0F485E0E3
S1130F000E94FE130E944D07C1E6D0E08C8384E06A
S1130F100E94FE130E944D078B8386E00E94FE13FD
S1130F200E944D078D83DF91CF910895CF92DF9278
S1130F30EF92FF920F931F9380916300482F50E02C
S1130F4060E070E0411551056105710509F44CC07C
S1130F504C30510561057105D8F48095885E4FEFDA
S1130F605FEFBA016A017B0104C0F694E794D79459
S1130F70C7948A95D2F7D701C60188279E7F8093AC
S1130F80810090938200A0938300B093840069C091
S1130F904C30510561057105D1F027E130E0281B83
S1130FA031098FEF9FEFDC0104C0B695A7959795A3
S1130FB087952A95D2F788279927A07E8093810068
S1130FC090938200A0938300B09384004AC080E091
S1130FD090E0A0E1B0E08093810090938200A09320
S1130FE08300B09384003DC08091B00081110DC096
S1130FF080E091E0A0E0B0E08093810090938200D3
S1131000A0938300B09384002CC0833021F08A30F5
S113101011F08F30D1F48091AA00882349F0109206
S1131020810010928200109283001092840019C0F3
S113103080E091E0A0E0B0E0809381009093820092
S1131040A0938300B09384000CC080E091E0A0E002
S1131050B0E08093810090938200A0938300B093CA
S1131060840080916200482F50E060E070E040937B
S1131070A6005093A7006093A8007093A900811163
S113108059C241E050E060E070E04093A600509304
S1131090A7006093A8007093A90026C093E5981B4D
S11310A04FEF5FEFBA0104C0769567955795479562
S11310B09A95D2F7E0E8F0E046A357A360A771A79A
S11310C00181128123813481402B512B622B732B9C
S11310D04183528363837483843150F19DEE980F6E
S11310E09093A500993249F41092850010928600DD
S11310F010928700109288002FC0913218F090E26D
S11311009093A500E0E8F0E095A120E230E0291BEF
S113111031094FEF5FEFBA0104C076956795579593
S113112047952A95D2F7458356836783708714C001
S113113040918500509186006091870070918800ED
S1131140452B462B472B41F01092850010928600C8
S113115010928700109288008823D9F08331B8F464
S113116023E1281B8FEF9FEFDC0104C0B695A79500
S1131170979587952A95D2F78827907E8093890042
S113118090938A00A0938B00B0938C0038C08C336A
S113119051F58091B000823021F0893011F08E3009
S11311A0A9F48091AA00811105C080E090E1A0E03B
S11311B0B0E003C080E090E0DC018093890090936C
S11311C08A00A0938B00B0938C0019C080E090E15A
S11311D0A0E0B0E08093890090938A00A0938B00F4
S11311E0B0938C000CC080E090EEAFEFBFEF809323
S11311F0890090938A00A0938B00B0938C00809117
S1131200610081119EC19091B000913021F09B301A
S113121011F09D3041F49091AA00911158C09CE3C3
S11312209093A5008BC19CE39093A50087C1982F50
S11312309F524FEF5FEFBA014093A6005093A7006F
S11312406093A8007093A9009D3069F4E0E8F0E091
S113125041855285638574854F6F5F6041875287EE
S11312606387748732C020E230E0291B31094FEFD5
S11312705FEFBA016A017B0104C0F694E794D79446
S1131280C7942A95D2F797018601E0E8F0E0C6A258
S1131290D7A2E0A6F1A641855285638574854C29C1
S11312A05D296E297F2941875287638774879091CE
S11312B0B000913029F09B3019F09D3009F05DC1E8
S11312C09091AA00911141C14BC1811114C0809128
S11312D0B000813021F08B3011F08D3041F48091D9
S11312E0AA00811147C08BE38093A5004AC18BE318
S11312F08093A50046C18031E8F18F508093A5000A
S1131300813218F080E28093A500E0E8F0E085A146
S113131020E230E0281B31098FEF9FEFDC0104C08D
S1131320B695A795979587952A95D2F78587968739
S1131330A787B08B2091B000213029F02B3019F011
S11313402D3009F051C02091AA00211103C0AC0135
S1131350BD0103C040E050E0BA01842B952BA62BBD
S1131360B72B80938D0090938E00A0938F00B09341
S113137090003AC080918D0090918E00A0918F00D2
S1131380B0919000892B8A2B8B2B41F010928D0009
S113139010928E0010928F00109290008091B000F5
S11313A0813021F08B3011F08D30F1F48091AA005E
S11313B0811109C080918D0090918E00A0918F00C1
S11313C0B091900003C080E090E0DC01E0E8F0E040
S11313D04585568567857089842B952BA62BB72B5D
S11313E085879687A787B08B809161008093A5003D
S11313F0811104C08CE38093A50072C0803108F091
S11314003FC020E130E0281B31098FEF9FEFDC0162
S113141004C0B695A795979587952A95D2F7880F16
S1131420991FAA1FBB1F88279927AE7F809391001D
S113143090939200A0939300B09394002091B000F5
S1131440213029F02B3019F02D3009F09DC0209166
S1131450AA00211105C040E050E06EEF7FEF03C009
S113146040E050E0BA0184239523A623B723809358
S1131470910090939200A0939300B093940084C041
S11314808C3371F1E0E8F0E081899289A389B48911
S1131490AE6FBF6F818B928BA38BB48B2091B00006
S11314A0213029F02B3019F02D3009F06DC0209136
S11314B0AA00211105C040E050E06EEF7FEF03C0A9
S11314C040E050E0BA01842B952BA62BB72B8093D8
S11314D0910090939200A0939300B093940054C011
S11314E080E090E0AFEFBFEF809391009093920083
S11314F0A0939300B09394008091B000813029F0C0
S11315008B3019F08D3009F03FC08091AA00811111
S113151005C080E090E0AFEFBFEF03C080E090E053
S1131520DC018093910090939200A0939300B09378
S113153094002AC0843308F0B1CDCECD9091A5009B
S113154077CE803308F4D7CE72CE4427507E4093B2
S1131550890050938A0060938B0070938C00B5CE01
S1131560402B512B622B732B4093890050938A009C
S113157060938B0070938C00A8CE882309F4B7CEB7
S1131580BACE8091A500B9CE1F910F91FF90EF9034
S1131590DF90CF9008950F931F93E09165008E2FF5
S11315A090E08D30910508F04BC1FC01E85CFF4FE1
S11315B00C94F11410928100109282001092830016
S11315C0109284003DC18091810090918200A0918D
S11315D08300B091840081159240A042B10509F4C2
S11315E02FC180E092E0A0E2B0E08093810090936C
S11315F08200A0938300B093840022C18091810073
S113160090918200A0918300B09184008115944050
S1131610A044B10509F414C180E094E0A0E4B0E072
S11316208093810090938200A0938300B093840000
S113163007C18091810090918200A0918300B091B4
S1131640840081159840A048B10509F4F9C080E0F0
S113165098E0A0E8B0E08093810090938200A0938A
S11316608300B0938400ECC080918100909182004B
S1131670A0918300B091840081159041A105B140EF
S113168009F4DEC080E090E1A0E0B1E08093810045
S113169090938200A0938300B0938400D1C0809182
S11316A0810090918200A0918300B0918400811503
S11316B09042A105B24009F4C3C080E090E2A0E0EA
S11316C0B2E08093810090938200A0938300B09352
S11316D08400B6C08091810090918200A091830023
S11316E0B091840081159044A105B44009F4A8C0C8
S11316F080E090E4A0E0B4E08093810090938200C5
S1131700A0938300B09384009BC08091810090914A
S11317108200A0918300B091840081159048A105B6
S1131720B84009F48DC080E090E8A0E0B8E0809370
S1131730810090938200A0938300B093840080C0C2
S11317408091810090918200A0918300B0918400E7
S11317500097A140B04109F473C080E090E0A1E09B
S1131760B0E18093810090938200A0938300B093B2
S1131770840066C08091810090918200A0918300D2
S1131780B09184000097A240B04209F459C080E0AF
S113179090E0A2E0B0E28093810090938200A09355
S11317A08300B09384004CC08091810090918200AA
S11317B0A0918300B09184000097A440B04409F440
S11317C03FC080E090E0A4E0B0E480938100909377
S11317D08200A0938300B093840032C08091810082
S11317E090918200A0918300B09184000097A8405A
S11317F0B04831F180E090E0A8E0B0E88093810047
S113180090938200A0938300B093840019C08091C8
S1131810810090918200A0918300B0918400811591
S11318209140A041B10561F080E091E0A0E1B0E019
S11318308093810090938200A0938300B0938400EE
S1131840E0E8F0E081819281A381B48188278183DB
S11318509283A383B4838091640081110DC040916D
S11318608500509186006091870070918800452B17
S1131870462B472BC9F542C0843150F19DEE980F99
S11318809093A500993249F4109285001092860035
S11318901092870010928800FDC1913218F090E2F6
S11318A09093A500E0E8F0E095A120E230E0291B48
S11318B031094FEF5FEFBA0104C0769567955795EC
S11318C047952A95D2F74583568367837087E2C18B
S11318D04091850050918600609187007091880046
S11318E0452B462B472B41F0109285001092860021
S11318F01092870010928800833110F5811109C07D
S11319001092890010928A0010928B0010928C0021
S113191023C023E1281B8FEF9FEFDC0104C0B695A1
S1131920A795979587952A95D2F78827907E8093D7
S1131930890090938A00A0938B00B0938C000CC014
S113194080E090EEAFEFBFEF8093890090938A0020
S1131950A0938B00B0938C0080916600811171C1BB
S11319609091B000963041F49091AA00911150C02A
S11319709CE39093A50062C19CE39093A5005EC193
S1131980982F9F524FEF5FEFBA014093A6005093F8
S1131990A7006093A8007093A9009D3079F4E0E853
S11319A0F0E041855285638574854F6F5F604187A0
S11319B0528763877487882359F13AC020E230E064
S11319C0291B31094FEF5FEFBA0104C07695679583
S11319D0579547952A95D2F7E0E8F0E046A357A338
S11319E060A771A70185128523853485042B152BE7
S11319F0262B372B01871287238734879091B000D9
S1131A00963009F040C19091AA0091111EC12BC1DA
S1131A108091B000863041F48091AA00811143C0C6
S1131A208BE38093A50033C18BE38093A5002FC182
S1131A308031C8F18F508093A500813218F080E284
S1131A408093A500E0E8F0E085A120E230E0281BC7
S1131A5031098FEF9FEFDC0104C0B695A7959795E8
S1131A6087952A95D2F785879687A787B08B20918B
S1131A70B000263009F04DC02091AA00211103C006
S1131A80AC01BD0103C040E050E0BA01842B952BAA
S1131A90A62BB72B80938D0090938E00A0938F007C
S1131AA0B093900036C080918D0090918E00A091EB
S1131AB08F00B0919000892B8A2B8B2B41F01092D0
S1131AC08D0010928E0010928F00109290008091E1
S1131AD0B0008630F1F48091AA00811109C0809190
S1131AE08D0090918E00A0918F00B091900003C062
S1131AF080E090E0DC01E0E8F0E04585568567850C
S1131B007089842B952BA62BB72B85879687A7875F
S1131B10B08B809166008093A500811104C08CE392
S1131B208093A50065C08031D8F520E130E0281B02
S1131B3031098FEF9FEFDC0104C0B695A795979507
S1131B4087952A95D2F7880F991FAA1FBB1F88274C
S1131B509927AE7F8093910090939200A093930075
S1131B60B09394002091B000263009F097C02091E2
S1131B70AA00211105C040E050E06EEF7FEF03C0E2
S1131B8040E050E0BA0184239523A623B723809331
S1131B90910090939200A0939300B09394007EC020
S1131BA08C3331F180E090E0AEEFBFEF8093910091
S1131BB090939200A0939300B09394008091B0000E
S1131BC0863009F06BC08091AA00811105C080E0C5
S1131BD090E0AEEFBFEF03C080E090E0DC018093C3
S1131BE0910090939200A0939300B093940056C0F8
S1131BF080E090E0AFEFBFEF80939100909392006C
S1131C00A0939300B09394008091B000863009F0C3
S1131C1045C08091AA00811105C080E090E0AFEF3B
S1131C20BFEF03C080E090E0DC01809391009093CB
S1131C309200A0939300B093940030C09091A500BB
S1131C40A0CE803308F4F4CE9BCE0027107E009300
S1131C50890010938A0020938B0030938C00882392
S1131C6009F421CFE5CE402B512B622B732B4093EB
S1131C70890050938A0060938B0070938C008823B2
S1131C8009F4CECED5CE882309F4CECED1CE809120
S1131C90A500D0CE833108F053CE3BCE1F910F91D7
S1131CA0089580918000813118F081E08093800054
S1131CB018BA0E94310789E190E00E94970EE0E88B
S1131CC0F0E0808188BB8081880F808308958091B3
S1131CD0A2008F5F853018F48093A20002C0109296
S1131CE0A200E0E8F0E0A2A1B0E0AA0FBB1FAA0F97
S1131CF0BB1FA058BF4F11968D919D910D90BC9123
S1131D00A02D858B968BA78B88279927AA27818F4F
S1131D10928FA38FB48F8B2F9927AA27BB27858FE8
S1131D20968FA78FB0A3808F81E081A30895009739
S1131D3019F000000197E9F7089511B880E280B91D
S1131D4086B7846886BF089584E986BF06B604FC16
S1131D50FDCF82E390E00E94970E089583B984E852
S1131D6086BF06B607FEFDCF0895811102C084E840
S1131D7001C084EC86BF06B607FEFDCF83B108958B
S1131D8021B1287F30E0482F50E081E02417350747
S1131D9009F080E0089584EA86BF06B607FEFDCF09
S1131DA088E00E94C00E089583B924E826BF06B6D1
S1131DB007FEFDCF803A910521F488E10E94C00E10
S1131DC0089588E20E94C00E089511BA12BAD398F9
S1131DD0DB9880B38170E3EBF0E0808380B38270A2
S1131DE0818380B38470828380B38870838380B35B
S1131DF08071848389B38870858380B3807486837B
S1131E0080B3807887830895D19A87B38F6187BB25
S1131E1081E088BB0895F89482E089BF83E085BDA2
S1131E2014BC89E183BD8AE08CBF85E083BF12BE08
S1131E3078948D9A83EC8FBD89E08EBD089587B325
S1131E40806A87BB83E78DB981E08EB97894089561
S1131E50D09A84B3806784BB08950E94040F0E94C3
S1131E609D0E0E94E50E0E940B0F0E941F0F0E9400
S1131E70280F08958091A30081111BC00E94670E52
S1131E80F894809195008FB9779BFECF809196004E
S1131E908FB9779BFECF809197008FB9779BFECF48
S1131EA0809198008FB9779BFECF81E08093A30047
S1131EB078940895CF93DF93E091B0008E2F90E053
S1131EC08F30910508F0EDC0FC01EB5BFF4F0C94E3
S1131ED0F114E1E6F0E091858081981739F1809161
S1131EE0AB00813069F018F0823099F01FC0C1E670
S1131EF0D0E081E0898F0E9496078881898716C087
S1131F00C1E6D0E081E0898F0E94CB0A888189876D
S1131F100DC0C1E6D0E0198E8E8188838F818983BC
S1131F2088858A830E949607888189870E948B030B
S1131F30E1E6F0E091858081981709F4B2C00E942F
S1131F409607E1E6F0E080818187ABC00E948B03B5
S1131F50E1E6F0E092858181981709F4A2C00E941D
S1131F609607E1E6F0E0818182879BC00E948B03A3
S1131F70E1E6F0E093858281981709F492C00E940B
S1131F809607E1E6F0E0828183878BC00E948B0391
S1131F90E1E6F0E094858481981709F482C00E94F8
S1131FA0CB0AE1E6F0E0848184877BC00E948B0346
S1131FB0E1E6F0E095858381981709F472C00E94E8
S1131FC0CB0AE1E6F0E0838185876BC00E948B0336
S1131FD0E1E6F0E096858581981709F462C00E94D5
S1131FE0CB0AE1E6F0E0858186875BC00E948B0323
S1131FF0E1E6F0E097858081981709F452C00E94C9
S11320009607E1E6F0E0808187874BC00E948B034E
S1132010E1E6F0E090898181981709F442C00E94BA
S11320209607E1E6F0E08181808B3BC00E948B0340
S1132030E1E6F0E091898281981799F10E94960770
S1132040E1E6F0E08281818B2CC00E948B03E1E603
S1132050F0E097858081981721F10E949607E1E6C8
S1132060F0E0808187871DC00E948B03E1E6F0E0E9
S1132070968982899817A9F00E949607E1E6F0E014
S11320808289868B0EC00E948B03E1E6F0E097897B
S11320908389981731F00E949607E1E6F0E083897E
S11320A0878BDF91CF9108958091A100813021F435
S11320B00E94510E1092A1000895F8940E94E71115
S11320C0789408958091CC00813011F40E947414A6
S11320D008958091B000811164C08091AB0081119A
S11320E060C0E1E6F0E090858281981334C0978166
S11320F0818198132AC08091D40081112CC081E081
S11321008093D400809176000E946D148091C70062
S1132110811121C081E08093C7008D9A83EC8FBD2B
S113212089E08EBD80B3E3EBF0E0808380B38183EC
S113213080B3828380B3838380B3848389B38583AC
S113214080B3868380B3878306C08091D4008130B6
S113215011F41092D4008091620081111CC080910E
S1132160D50081111EC081E08093D500E1E6F0E046
S113217092818085981309C080916800811105C0FF
S1132180809176000E946D140895CA990AC087E070
S11321900E94661408958091D500813011F4109244
S11321A0D50008950E942D0F0E943107E0E8F0E069
S11321B081E0808383A311A284A394E092A310926C
S11321C0B00080937E008093C70080E090E00E947E
S11321D0CB0090E0C3EBD0E09D878C8782E593E051
S11321E00E94970E8C859D858230910519F128F403
S11321F0009749F00197B9F032C08330910509F195
S1132200049731F12CC08CE390E09093C00080934C
S1132210BF0061E080E090E00E94AD0082E593E0C1
S11322200E94970E2BC08CE390E09093C0008093A3
S1132230BF0024C085E591E09093C0008093BF0067
S11322401DC08AEA92E09093C0008093BF0016C03C
S11322508FEF93E09093C0008093BF000FC08CE396
S113226090E09093C0008093BF0061E080E090E034
S11322700E94AD0082E593E00E94970E8091BF001A
S11322809091C0008F3F934039F48CE390E0909399
S1132290BE008093BD0006C08FEF93E09093BE0014
S11322A08093BD0081E090E00E94CB0080936700A2
S11322B0811104C081E08093B10002C01092B1008A
S11322C088EB9BE00E94970E82E090E00E94CB0096
S11322D0C1E6D0E08F8388EB9BE00E94970E83E0F9
S11322E090E00E94CB0088871092AB0011E0198F18
S11322F00E945807E8ECF0E01082148216821286DD
S1132300178385E090E00E94CB008A8B80E293E003
S11323100E94970E84E090E00E94CB008B8B80E2B9
S113232093E00E94970E8A89811104C081E0809312
S1132330B20002C01092B2001092D50080917400D5
S1132340813039F018F0823041F00AC010927600E2
S113235007C081E08093760003C082E0809376001A
S113236085E00E94FE13C1E6D0E08C830E944D07F5
S11323708C8384E00E94FE138B830E944D078B8321
S113238086E00E94FE138D830E944D078D83109278
S1132390BB0089B7806889BF0E94FE060E94580767
S11323A0F8940E945A0F78940E945D100E94541071
S11323B00E943A0F0E94EC008E8D813019F41E8E1B
S11323C00E9458070E9462100E946910E5CF809114
S11323D0DF00882321F0813009F409C10895E6ED76
S11323E0F0E090858285891728F481E08187108642
S11323F08EE18287A6EDB0E01596EC9115971696BE
S11324008C918E1709F4F9C18E2F90E080319105DB
S113241008F0F3C1FC01EC5AFF4F0C94F114E0E80E
S1132420F0E081899289A389B489882799278068F3
S1132430818B928BA38BB48B0895E0E8F0E08189C3
S11324409289A389B489882799278460818B928B88
S1132450A38BB48B0895E0E8F0E081899289A38985
S1132460B489882799278062818B928BA38BB48B44
S11324700895E0E8F0E081899289A389B4898827E6
S113248099278160818B928BA38BB48B0895E0E8AC
S1132490F0E081899289A389B48988279927906873
S11324A0818B928BA38BB48B0895E0E8F0E0818953
S11324B09289A389B489882799279460818B928B08
S11324C0A38BB48B0895E0E8F0E081899289A38915
S11324D0B489882799279062818B928BA38BB48BC4
S11324E00895E0E8F0E081899289A389B489882776
S11324F099279160818B928BA38BB48B0895E0E82C
S1132500F0E081899289A389B48988279927886012
S1132510818B928BA38BB48B0895E0E8F0E08189E2
S11325209289A389B489882799278064818B928BA7
S1132530A38BB48B0895E0E8F0E081899289A389A4
S1132540B489882799278260818B928BA38BB48B63
S11325500895E0E8F0E081899289A389B489882705
S113256099278061818B928BA38BB48B0895E0E8CB
S1132570F0E081899289A389B48988279927986092
S1132580818B928BA38BB48B0895E0E8F0E0818972
S11325909289A389B489882799279064818B928B27
S11325A0A38BB48B0895E0E8F0E081899289A38934
S11325B0B489882799279260818B928BA38BB48BE3
S11325C00895E0E8F0E081899289A389B489882795
S11325D099279061818B928BA38BB48BE6EDF0E00D
S11325E08FEF8583868380858F5F80870895E6EDEE
S11325F0F0E090858285891720F41086118684E1A5
S11326008287A6EDB0E01596EC91159716968C91FD
S11326108E1709F4F2C08E2F90E08031910508F0F6
S1132620ECC0FC01EC59FF4F0C94F114E0E8F0E02D
S113263081899289A389B489882799278068818BA5
S1132640928BA38BB48B0895E0E8F0E081899289A2
S1132650A389B489882799278460818B928BA38B63
S1132660B48B0895E0E8F0E081899289A389B48964
S1132670882799278062818B928BA38BB48B0895D2
S1132680E0E8F0E081899289A389B48988279927B1
S11326908160818B928BA38BB48B0895E0E8F0E08A
S11326A081899289A389B489882799279068818B25
S11326B0928BA38BB48B0895E0E8F0E08189928932
S11326C0A389B489882799279460818B928BA38BE3
S11326D0B48B0895E0E8F0E081899289A389B489F4
S11326E0882799279062818B928BA38BB48B089552
S11326F0E0E8F0E081899289A389B4898827992741
S11327009160818B928BA38BB48B0895E0E8F0E009
S113271081899289A389B489882799278860818BC4
S1132720928BA38BB48B0895E0E8F0E081899289C1
S1132730A389B489882799278064818B928BA38B82
S1132740B48B0895E0E8F0E081899289A389B48983
S1132750882799278260818B928BA38BB48B0895F1
S1132760E0E8F0E081899289A389B48988279927D0
S11327708061818B928BA38BB48B0895E0E8F0E0A9
S113278081899289A389B489882799279860818B44
S1132790928BA38BB48B0895E0E8F0E08189928951
S11327A0A389B489882799279064818B928BA38B02
S11327B0B48B0895E0E8F0E081899289A389B48913
S11327C0882799279260818B928BA38BB48B089571
S11327D0E0E8F0E081899289A389B4898827992760
S11327E09061818B928BA38BB48BE6EDF0E08FEF3D
S11327F08583868380858F5F80870895CF93C82FD4
S11328000E94CB0E80ED90E00E94D40E8C2F90E0BD
S11328100E94D40E0E94CB0E81ED90E00E94D40E53
S113282080E00E94B50EC82F0E94A40E8C2FCF9179
S113283008951F93CF93DF93C82FD62F142F0E9490
S1132840CB0E80ED90E00E94D40E80E090E00E94D8
S1132850D40E812F90E00E94D40E8D2F90E00E9420
S1132860D40E8C2F90E00E94D40E0E94A40EDF910F
S1132870CF911F9108951F93CF93DF93182FD62FD5
S1132880C42F0E94CB0E80ED90E00E94D40E84E011
S113289090E00E94D40E812F90E00E94D40E8D2FE0
S11328A090E00E94D40E8C2F90E00E94D40E0E94DF
S11328B0A40EDF91CF911F910895E8ECF0E091E030
S11328C0958394838083978314BC08959091B20078
S11328D0913011F40E945D1408959091B1009130EB
S11328E011F40E945D140895CF93DF938091CD007D
S11328F0813009F067C0E8ECF0E0808181831582C3
S11329001682108614BC82858130B1F028F08230A2
S113291009F1833069F162C08091CE00893010F4EE
S1132920D8985CC0D89AE8ECF0E082858F5F828703
S113293016821086AD9A52C08091CE00853108F47B
S11329404DC0AD98E8ECF0E082858F5F82871682F7
S1132950108644C08091CE008B3008F43FC0E8EC70
S1132960F0E083E08287168210861186AE9836C026
S11329701092CB00C8ECD0E0AE98898181708A8334
S1132980882319F0813019F003C0AC9801C0AC9AC7
S11329908981869589838FE090E00E94970EAE9A94
S11329A086E190E00E94970E8B818F5F8B83883045
S11329B018F3AD9AE8ECF0E0148212860FC010927E
S11329C0CB00D8CF8091D200813009F4B5CF08F480
S11329D0A3CF823009F4BECF833089F3DF91CF9146
S11329E00895EE0FFF1F0590F491E02D0994F894DB
S10529F0FFCF13
S9030000FC
